:03000000020800F3
:0C080000787FE4F6D8FD75810D020847F2
:0C094300020C0000020A00000208000084
:10088C007580FFE4F5A012095020811030800D1204
:10089C00096B050BE50B70F1050A80ED208010301B
:1008AC00810D120962050DE50D70DE050C80DA2054
:1008BC00800820810512095980CF30804030813D5D
:1008CC001209340509E50970020508D39405E508F9
:1008DC006480948040B3E4F508F509D3E50D950BDD
:1008EC00E50A6480F8E50C64809840051209628082
:1008FC000312096B7FC87E0012090E808C120950FE
:02090C008087E2
:09095000C2A2C2A0C2A3C2A122EE
:09095900D2A2D2A0C2A3C2A122C5
:0F093400D2A3D2A1C2A2C2A07FC87E0002090E28
:09096200C2A2D2A0C2A3C2A122CC
:09096B00D2A2C2A0C2A3C2A122C3
:10090E00E4FDFCC3ED9FEE6480F8EC648098501516
:10091E00E4FBFA0BBB00010AEB64FA4A70F50DBD5D
:05092E0000010C80DE59
:0109330022A1
:10080C0002088CE493A3F8E493A34003F68001F26E
:10081C0008DFF48029E493A3F85407240CC8C333ED
:10082C00C4540F4420C8834004F456800146F6DFBC
:10083C00E4800B0102040810204080900943E47E00
:10084C00019360BCA3FF543F30E509541FFEE493B1
:10085C00A360010ECF54C025E060A840B8E493A378
:10086C00FAE493A3F8E493A3C8C582C8CAC583CAA3
:10087C00F0A3C8C582C8CAC583CADFE9DEE780BE5B
:01094F0000A7
:00000001FF
