:03000000020800F3
:0C080000787FE4F6D8FD75812E020847D1
:100B0E00426C7565746F6F746820436F6E74726F8C
:100B1E006C6C656400526F626F7469632041726D14
:010B2E0000C6
:060B9100012E78012D0089
:09098E0012088CD2817F057E0065
:10099700E4FDFCC3ED9FEE6480F8EC64809850158D
:1009A700E4FBFA0BBB00010AEB64644A70F50DBD6A
:0509B70000010C80DED0
:0109BC002218
:10088C00EF30E004D2A08002C2A0EF30E104D2A18C
:10089C008002C2A1EF30E204D2A28002C2A2EF30E9
:1008AC00E304D2A38002C2A3EF30E404D2A48002FA
:1008BC00C2A4EF30E504D2A58002C2A5EF30E60455
:1008CC00D2A68002C2A6EF30E703D2A722C2A7228B
:070B5C007E001209977F30B3
:080B6300C28012098EC281223A
:050B98007F01020B6368
:100B2F008F1FA905E51FB40105E924808008E51F83
:0B0B3F00B40207E924C0FF120B632280
:100A9600E4FF12088CC2807FC8120B5C7F32120BF7
:100AA6005C7F6E120B5C7F38120B637F0C120B633C
:0A0AB6007F01120B637F06020B6341
:080B8900D28012098EC2812204
:0609EA008B1F8A20892109
:1009F000E4F522F523AB1FAA20A9218523828522B5
:100A0000831209BDFF600D120B890523E52370E5F4
:040A1000052280E15A
:010A140022BF
:050B9D007F1C020B6348
:050BA2007F18020B6347
:100AC000EF30E004D2A48002C2A4EF30E104D2A54A
:100AD0008002C2A5EF30E204D2A68002C2A6EF30A7
:080AE000E303D2A722C2A72202
:070B4A007E001209977F03F2
:0B0B5100C280120AC0120991C281226A
:0A0B6B00E4FF120B517F01020B5151
:0408DC008F29A905B2
:1008E000E529B40112E92480FFF52A7804A2E71370
:1008F000D8FBF52BEF8016E529B4021FE92480F51B
:100900002A7804A2E713D8FBF52BE924C0540FF58D
:0B0910002CAF2B120B51AF2C120B511F
:01091B0022B9
:10095700E4FF120AC07FC8120B4A7F32120B4A7F8C
:100967006E120B4A7F02120B517F02120B517F0846
:10097700120B51E4FF120B517F0C120B51E4FF12C3
:070987000B517F06020B512A
:020A1500AE072A
:100A1700EE540FF9EE54F0FFD2807804A2E713D812
:100A2700FBFF120AC0120991C281AF01120AC0D29C
:080A3700817F05120997C281BD
:010A3F002294
:060A40008B248A258926A3
:100A4600E4F527F528AB24AA25A92685288285273B
:100A5600831209BDFF600D120A150528E52870E509
:040A6600052780E1FF
:010A6A002269
:0A0B75007F01120B517F0C020B519F
:0A0B7F007F01120B517F08020B5199
:10091C00E4F508F509758920758DFD759850D28E12
:10092C0075A890120A967D017F01120B2F7BFF7A1E
:10093C000B790E1209EA7D017F02120B2F7BFF7AD5
:0B094C000B79231209EA120A6B80FBF2
:100A6B00E4F5A8C299852E997F64FE120AE8052D3C
:100A7B00120B987D047F01120B2FAF2E120B897D69
:0B0A8B00047F02120B2FAF2D020B891D
:100AE800E4FDFCC3ED9FEE6480F8EC64809850153B
:100AF800E4FBFA0BBB00010AEB64644A70F50DBD18
:050B080000010C80DE7D
:010B0D0022C5
:10080C0002091CE493A3F8E493A34003F68001F2DD
:10081C0008DFF48029E493A3F85407240CC8C333ED
:10082C00C4540F4420C8834004F456800146F6DFBC
:10083C00E4800B0102040810204080900B91E47EB0
:10084C00019360BCA3FF543F30E509541FFEE493B1
:10085C00A360010ECF54C025E060A840B8E493A378
:10086C00FAE493A3F8E493A3C8C582C8CAC583CAA3
:10087C00F0A3C8C582C8CAC583CADFE9DEE780BE5B
:010B9700005D
:1009BD00BB010CE58229F582E5833AF583E02250EF
:1009CD0006E92582F8E622BBFE06E92582F8E22239
:0D09DD00E58229F582E5833AF583E4932253
:00000001FF
