:10096600426C7565746F6F746820436F6E74726F36
:100976006C6C656400526F626F7469632041726DBE
:10098600004D6F76696E672055702E2E004D6F767E
:10099600696E67204C6566742E2E004D6F76696E03
:1009A6006720446F776E2E2E004D6F76696E672036
:1009B60052696768742E2E005069636B696E6720F2
:1009C6004F626A6563742E2E0044726F702E2E007D
:1009D60053544F502100434D44204E4F5420466FF0
:0509E600756E642100A4
:030CC100012D788A
:090AB2001209EBD2817F057E00E0
:100ABB00E4FDFCC3ED9FEE6480F8EC648098501568
:100ACB00E4FBFA0BBB00010AEB64644A70F50DBD45
:050ADB0000010C80DEAB
:010AE00022F3
:1009EB00EF30E004D2A08002C2A0EF30E104D2A12C
:1009FB008002C2A1EF30E204D2A28002C2A2EF3089
:100A0B00E304D2A38002C2A3EF30E404D2A4800299
:100A1B00C2A4EF30E504D2A58002C2A5EF30E604F4
:100A2B00D2A68002C2A6EF30E703D2A722C2A7222A
:070C52007E00120ABB7F3097
:080C5900C280120AB2C281221E
:050C94007F01020C5974
:040C07007D017F02EA
:100C0B008F1FA905E51FB40105E924808008E51FA6
:0B0C1B00B40207E924C0FF120C5922AC
:100B8F00E4FF1209EBC2807FC8120C527F32120CA5
:100B9F00527F6E120C527F38120C597F0C120C5967
:0A0BAF007F01120C597F06020C5959
:080C8C00D280120AB2C28122DB
:060B0E008B1F8A208921E3
:100B1400E4F522F523AB1FAA20A92185238285228F
:100B240083120AE1FF600D120C8C0523E52370E5A6
:040B3400052280E135
:010B3800229A
:050C99007F1C020C5954
:050C9E007F18020C5953
:100BB900EF30E004D2A48002C2A4EF30E104D2A550
:100BC9008002C2A5EF30E204D2A68002C2A6EF30AD
:080BD900E303D2A722C2A72208
:070C40007E00120ABB7F03D6
:0B0C4700C280120BB9120AB5C2812254
:0A0C6E00E4FF120C477F01020C475F
:040A3B008F29A90551
:100A3F00E529B40112E92480FFF52A7804A2E7130F
:100A4F00D8FBF52BEF8016E529B4021FE92480F5BA
:100A5F002A7804A2E713D8FBF52BE924C0540FF52D
:0B0A6F002CAF2B120C47AF2C120C47D1
:010A7A002259
:100A7B00E4FF120BB97FC8120C407F32120C407F7F
:100A8B006E120C407F02120C477F02120C477F083C
:100A9B00120C47E4FF120C477F0C120C47E4FF12B9
:070AAB000C477F06020C4717
:020B3900AE0705
:100B3B00EE540FF9EE54F0FFD2807804A2E713D8ED
:100B4B00FBFF120BB9120AB5C281AF01120BB9D25E
:080B5B00817F05120ABBC28173
:010B6300226F
:060B64008B248A2589267E
:100B6A00E4F527F528AB24AA25A926852882852716
:100B7A0083120AE1FF600D120B390528E52870E59A
:040B8A00052780E1DA
:010B8E002244
:0A0C78007F01120C477F0C020C47AD
:0A0C82007F01120C477F08020C47A7
:10080000E4F508F509758920758DFD759850D28E2F
:1008100075A890120B8F7D017F01120C0B7BFF7A64
:10082000097966120B0E120C077BFF7A09797B128D
:100830000B0E120C26E52D249F602724FD60452415
:10084000F5606414604F24FD602924FB606B047024
:100850007A120C077BFF7A097987120B0E120CAD06
:1008600080D0120C077BFF7A097993120B0E120CC1
:10087000B780BF120C077BFF7A0979A1120B0E1209
:100880000CB280AE120C077BFF7A0979AF120B0E07
:10089000120CBC809D120C077BFF7A0979BE120BEB
:1008A0000E120CA3020832120C077BFF7A0979CFD3
:1008B000120B0E120CA8020832120C077BFF7A09E9
:1008C00079D6120B0E120C61020832120C077BFF54
:0A08D0007A0979DC120B0E020832DF
:100C2600E4F5A83098FD85992DC298120C947D01A3
:0A0C36007F01120C0BAF2D020C8C95
:100BE100E4FDFCC3ED9FEE6480F8EC648098501541
:100BF100E4FBFA0BBB00010AEB64644A70F50DBD1E
:050C010000010C80DE83
:010C060022CB
:0D0C6100C282C283C2B3C2B2C2B6C2B72201
:050CA300D282C2832291
:050CA800C282D283228C
:050CAD00D2B6C2B7221F
:050CB200D2B7C2B6221A
:050CB700D2B3C2B2221D
:050CBC00D2B2C2B32218
:030000000208DA19
:0C08DA00787FE4F6D8FD75812D0209211D
:100AE100BB010CE58229F582E5833AF583E02250CA
:100AF10006E92582F8E622BBFE06E92582F8E22214
:0D0B0100E58229F582E5833AF583E493222D
:1008E600020800E493A3F8E493A34003F68001F220
:1008F60008DFF48029E493A3F85407240CC8C33313
:10090600C4540F4420C8834004F456800146F6DFE1
:10091600E4800B0102040810204080900CC1E47EA4
:10092600019360BCA3FF543F30E509541FFEE493D6
:10093600A360010ECF54C025E060A840B8E493A39D
:10094600FAE493A3F8E493A3C8C582C8CAC583CAC8
:10095600F0A3C8C582C8CAC583CADFE9DEE780BE80
:010CC400002F
:00000001FF
