:030000000209CC26
:0C09CC00787FE4F6D8FD758163020A1301
:100A580053686F7720596F75722052464944004396
:100A680061726400436C6F73696E6720446F6F72C4
:100A78002E2E004F70656E696E6720446F6F722E60
:100A88002E0053747564656E740054686520446F55
:100A98006F72206973004C4F434B45442100544505
:100AA8004143484552004C6F636B696E6720446F41
:100AB8006F722E2E00416273656E742053747564D4
:100AC800656E74733A00574F4F50532E2E212100F4
:080AD80057454C434F4D45000A
:100BB900022F00000C3D464530303546373334327C
:100BC90039302024084645303035463439433232ED
:100BD900413133303034304243424535313133309D
:090BE900303441303441424636FB
:090C5B00120AE0D2817F057E003F
:100C6400E4FDFCC3ED9FEE6480F8EC6480985015BD
:100C7400E4FBFA0BBB00010AEB64644A70F50DBD9A
:050C840000010C80DE00
:010C89002248
:100AE000EF30E004D2A08002C2A0EF30E104D2A136
:100AF0008002C2A1EF30E204D2A28002C2A2EF3093
:100B0000E304D2A38002C2A3EF30E404D2A48002A3
:100B1000C2A4EF30E504D2A58002C2A5EF30E604FE
:100B2000D2A68002C2A6EF30E703D2A722C2A72234
:070E1B007E00120C647F3021
:080E2200C280120C5BC28122A8
:050E50007F01020E22EB
:070D8900120E507D017F01F5
:100D90008F4EA905E54EB40105E924808008E54E93
:0B0DA000B40207E924C0FF120E22225B
:100D0D00E4FF120AE0C2807FC8120E1B7F32120E62
:100D1D001B7F6E120E1B7F38120E227F0C120E22BD
:0A0D2D007F01120E227F06020E2243
:080E4800D280120C5BC2812272
:060C2A007BFF7A0A798AC3
:060C30008B4E8A4F895033
:100C3600E4F551F552AB4EAA4FA950855282855123
:100C460083120C8AFF600D120E480552E55270E5BC
:040C5600055180E1E3
:010C5A002277
:050E55007F1C020E22CB
:050E5A007F18020E22CA
:100D6100EF30E004D2A48002C2A4EF30E104D2A5A6
:100D71008002C2A5EF30E204D2A68002C2A6EF3003
:080D8100E303D2A722C2A7225E
:070DF7007E00120C647F0373
:0B0DFE00C280120D61120C5EC2812247
:0A0E2A00E4FF120DFE7F01020DFE31
:040B79008F60A905DB
:100B7D00E560B40112E92480FFF5617804A2E71362
:100B8D00D8FBF562EF8016E560B4021FE92480F50D
:100B9D00617804A2E713D8FBF562E924C0540FF580
:0B0BAD0063AF62120DFEAF63120DFE7D
:010BB800221A
:100BF300E4FF120D617FC8120DF77F32120DF77FEC
:100C03006E120DF77F02120DFE7F02120DFE7F089A
:100C1300120DFEE4FF120DFE7F0C120DFEE4FF1217
:070C23000DFE7F06020DFE2D
:020CB700AE0786
:100CB900EE540FF9EE54F0FFD2807804A2E713D86E
:100CC900FBFF120D61120C5EC281AF01120D61D2E0
:080CD900817F05120C64C28149
:010CE10022F0
:060CE2008B5B8A5C895D5A
:100CE800E4F55EF55FAB5BAA5CA95D855F82855E16
:100CF80083120C8AFF600D120CB7055FE55F70E583
:040D0800055E80E123
:010D0C0022C4
:0A0E34007F01120DFE7F0C020DFE7F
:0A0E3E007F01120DFE7F08020DFE79
:040D37007FD07E07E4
:100D3B00E4FDFCC3ED9FEE6480F8EC6480985015E5
:100D4B00E4FBFA0BBB00010AEB64644A70F50DBDC2
:050D5B0000010C80DE28
:010D60002270
:100E0900E4FF3098FD74312FF8A699C2980FBF0CF2
:010E1900F1E7
:010E1A0022B5
:100DAB00120D897BFF7A0A7958120C307D067F026F
:0C0DBB00120D907BFF7A0A7967020C3061
:100DC700120E507D017F02120D907BFF7A0A796C1B
:0A0DD700120C307FE87E03020D3B92
:100DE1007D017F02120D907BFF7A0A797B120C3014
:060DF100120D37020DC7D0
:10080000E4F557F558F559F55AF553F554AF5474C6
:100810003D2FF8E6FE74312FF8E66E60087557003C
:100820007558018014755900755A010554E55470C6
:10083000020553640C455370D4E558640145577064
:100840007AE530452F7074F553F554E4F555F556B7
:10085000AF56E55475F00CA424082FF8E6FE743169
:100860002FF8E66E7041E556640B45557026120E62
:10087000507D047F01120D90120C2AE5542431FFA3
:10088000120E48742C2554F876017FE87E03120D71
:100890003B120D8C0556E55670020555C3940CE5C8
:1008A000556480948040A90554E55470020553C3F3
:1008B0009403E55364809480409122E55864014597
:1008C00057702BE5306401452F7023120E507D02C6
:1008D0007F01120D907BFF7A0A7992120C307D0411
:1008E0007F02120D907BFF7A0A799E020C30E55A46
:1008F00064014559703DE5306401452F7035120E95
:10090000507D047F01120D907BFF7A0A79A6120CAC
:1009100030120DE1E4F52FF530F553F554742C2524
:1009200054F8E4F60554E554700205536403455346
:1009300070EB22E55A6401455960030209BCE530B9
:10094000452F7078120E507D047F01120D907BFFB1
:100950007A0A79A6120C307FF47E01120D3B120D3B
:10096000E1120D897BFF7A0A79AE120C30120D3735
:10097000752F00753001E4F553F554742C2554F8A7
:10098000E67025120D897BFF7A0A79BD120C307D45
:10099000037F02120D90120C2AE5542431FF120E2F
:1009A000487FE87E03120D3B0554E5547002055361
:1009B000C39403E5536480948040C022120D897B68
:0B09C000FF7A0A79CE120C30120D37BE
:0109CB002209
:100B3000754BFF754C0A754DD8758920758DFD75FF
:100B40009850D28E120D0D120D8C7FC87E00120DA2
:100B50003B7D037F01120D90AB4BAA4CA94D120CAB
:100B600030120D37120DAB120E09120E507FE87EB7
:090B700003120D3B120DAB80EEE7
:1009D800020B30E493A3F8E493A34003F68001F2FA
:1009E80008DFF48029E493A3F85407240CC8C33320
:1009F800C4540F4420C8834004F456800146F6DFEF
:100A0800E4800B0102040810204080900BB9E47EBA
:100A1800019360BCA3FF543F30E509541FFEE493E3
:100A2800A360010ECF54C025E060A840B8E493A3AA
:100A3800FAE493A3F8E493A3C8C582C8CAC583CAD5
:100A4800F0A3C8C582C8CAC583CADFE9DEE780BE8D
:010BF2000002
:100C8A00BB010CE58229F582E5833AF583E022501F
:100C9A0006E92582F8E622BBFE06E92582F8E22269
:0D0CAA00E58229F582E5833AF583E4932283
:00000001FF
