:03000000020D29C5
:0C0D2900787FE4F6D8FD758122020A0EE6
:100B8C00456E7465722050617373776F72643A00AE
:100B9C0057726F6E672050617373776F72642100A8
:100BAC00436F72726563742050617373776F7264F4
:050BBC0000313233346A
:090BC100120AC5D2817F057E00F5
:100BCA00E4FDFCC3ED9FEE6480F8EC648098501558
:100BDA00E4FBFA0BBB00010AEB64644A70F50DBD35
:050BEA0000010C80DE9B
:010BEF0022E3
:100AC500EF30E004D2A08002C2A0EF30E104D2A151
:100AD5008002C2A1EF30E204D2A28002C2A2EF30AE
:100AE500E304D2A38002C2A3EF30E404D2A48002BF
:100AF500C2A4EF30E504D2A58002C2A5EF30E6041A
:100B0500D2A68002C2A6EF30E703D2A722C2A7224F
:070D1A007E00120BCA7F30BE
:080D2100C280120BC1C2812245
:050D5B007F01020D21E3
:100CED008F15A905E515B40105E924808008E515E2
:0B0CFD00B40207E924C0FF120D212201
:100C7100E4FF120AC5C2807FC8120D1A7F32120D1D
:100C81001A7F6E120D1A7F38120D217F0C120D2161
:0A0C91007F01120D217F06020D21E4
:080D5300D280120BC1C2812203
:060BF0008B158A1689171F
:100BF600E4F518F519AB15AA16A9178519828518F3
:100C0600831208F6FF600D120D530519E51970E5FC
:040C1600051880E15C
:010C1A0022B7
:050D60007F1C020D21C3
:050D65007F18020D21C2
:100CC500EF30E004D2A48002C2A4EF30E104D2A543
:100CD5008002C2A5EF30E204D2A68002C2A6EF30A0
:080CE500E303D2A722C2A722FB
:070D08007E00120BCA7F03FD
:0B0D0F00C280120CC5120BC4C281226E
:0A0D3500E4FF120D0F7F01020D0F05
:040B15008F1FA90580
:100B1900E51FB40112E92480FFF5207804A2E71348
:100B2900D8FBF521EF8016E51FB4021FE92480F5F3
:100B3900207804A2E713D8FBF521E924C0540FF566
:0B0B490022AF21120D0FAF22120D0F82
:010B5400227E
:100B5500E4FF120CC57FC8120D087F32120D087F05
:100B65006E120D087F02120D0F7F02120D0F7F0806
:100B7500120D0FE4FF120D0F7F0C120D0FE4FF1283
:070B85000D0F7F06020D0FAA
:020C1B00AE0722
:100C1D00EE540FF9EE54F0FFD2807804A2E713D80A
:100C2D00FBFF120CC5120BC4C281AF01120CC5D251
:080C3D00817F05120BCAC28180
:010C4500228C
:060C46008B1A8A1B891CB9
:100C4C00E4F51DF51EAB1AAA1BA91C851E82851D79
:100C5C00831208F6FF600D120C1B051EE51E70E5D5
:040C6C00051D80E101
:010C70002261
:0A0D3F007F01120D0F7F0C020D0F53
:0A0D49007F01120D0F7F08020D0F4D
:040C9B007F647E00F4
:100C9F00E4FDFCC3ED9FEE6480F8EC648098501582
:100CAF00E4FBFA0BBB00010AEB64644A70F50DBD5F
:050CBF0000010C80DEC5
:010CC400220D
:10092300D294D295D296D297C290D291D292D293A8
:10093300209409120C9B3094FD7F372220950912D5
:100943000C9B3095FD7F3822209609120C9B309624
:10095300FD7F3922209709120C9B3097FD7F2F22B0
:10096300D290C291D292D293209409120C9B3094CC
:10097300FD7F3422209509120C9B3095FD7F352293
:10098300209609120C9B3096FD7F36222097091280
:100993000C9B3097FD7F5822D290D291C292D29372
:1009A300209409120C9B3094FD7F3122209509126B
:1009B3000C9B3095FD7F3222209609120C9B3096BA
:1009C300FD7F3322209709120C9B3097FD7F2D2248
:1009D300D290D291D292C293209409120C9B30945C
:1009E300FD7F4322209509120C9B3095FD7F302219
:1009F300209609120C9B3096FD7F3D222097091209
:0B0A03000C9B3097FD7F2B227F002210
:100A0E00E4F509F50AF50BF50C780D7C00FD7BFF7E
:100A1E007A0B79BDFE7F041208D0120C717D017F16
:100A2E0001120CED7BFF7A0B798C120BF07D017F9E
:100A3E0002120CEDC3E50A9404E50964809480501B
:100A4E00161209237411250AF8EFF6700A050AE545
:100A5E000A70E1050980DDE4F509F50AAF0A7411A3
:100A6E002FF8E6FE740D2FF8E66E6008750B007514
:100A7E000C01800E050AE50A700205096404450999
:100A8E0070DA7FE87E03120C9F120D5B7D017F01F1
:100A9E00120CEDE50C6401450B7BFF70067A0B79A9
:100AAE009C80047A0B79AC120BF07FD07E07120C6F
:070ABE009F120D5B020A2BE1
:10080000E709F608DFFA8046E709F208DFFA803EDA
:1008100088828C83E709F0A3DFFA8032E309F608C7
:10082000DFFA8078E309F208DFFA807088828C832F
:10083000E309F0A3DFFA806489828A83E0A3F608E3
:10084000DFFA805889828A83E0A3F208DFFA804CBD
:1008500080D280FA80C680D4806980F28033801094
:1008600080A680EA809A80A880DA80E280CA8033FD
:1008700089828A83ECFAE493A3C8C582C8CCC58375
:10088000CCF0A3C8C582C8CCC583CCDFE9DEE78045
:100890000D89828A83E493A3F608DFF9ECFAA9F0C4
:1008A000EDFB2289828A83ECFAE0A3C8C582C8CC1A
:1008B000C583CCF0A3C8C582C8CCC583CCDFEADE33
:1008C000E880DB89828A83E493A3F208DFF980CC95
:1008D00088F0EF60010E4E60C388F0ED2402B4048E
:1008E0000050B9F582EB2402B4040050AF23234535
:0608F00082239008507302
:1008F600BB010CE58229F582E5833AF583E02250B7
:1009060006E92582F8E622BBFE06E92582F8E22200
:0D091600E58229F582E5833AF583E493221A
:00000001FF
