:03000000020AF001
:0C0AF000787FE4F6D8FD75816E020B37AC
:100BD20044697374616E63653A20202020202020CE
:100BE200002E4D6F76696E6720466F727761726470
:100BF2002E004D6F76696E6720204261636B7761CC
:100C02007264002E2E4D6F76696E6720204C6566E9
:100C1200742E2E002E2E4D6F76696E6720526967F4
:050C220068742E2E0095
:100DB700012A00012B000127C0020A0000022800B7
:010DC700002B
:10080000E4F55AF55BF55CF55DC2B7F5B0D2AFD251
:10081000A9758901F58AF58CD28C120DA37FE87E2B
:10082000FD120E2A7BFF7A0B79D275640075651074
:100830007FC0120CBA120C27120974D3E544940A33
:10084000E54394004005120DC980ED120DE9E4F571
:100850005EF55F120E12120CEC055FE55F7002058B
:100860005EC39464E55E6480948040E71209747FFF
:10087000C87E00120CF085435A85445BE4F55EF5B2
:100880005F120E1E120CEC055FE55F7002055EC381
:100890009464E55E6480948040E71209747FC87EAA
:1008A00000120CF085435C85445DE4F55EF55F1253
:1008B0000E06120CEC055FE55F7002055EC39464E2
:1008C000E55E6480948040E7D3E55B940AE55A6472
:1008D0008094804021E55D940AE55C6480948050BA
:1008E00015800EC3E544940AE543940040030208D2
:1008F00038120D5580EDC3E55B940AE55A64809487
:10090000805021E55D940AE55C6480948040158008
:100910000EC3E544940AE5439400400302083812EC
:100920000D7080EDD3E55B955DE55C6480F8E55A7C
:100930006480984015800EC3E544940AE543940012
:100940004003020838120D5580EDC3E55B955DE567
:100950005C6480F8E55A6480984003020838120D00
:1009600070C3E544940AE54394004003020838123A
:040970000D7080ED99
:0C0E0600D2B77F6E7E00120DF8C2B7223A
:0C0E1200D2B77FB47E00120DF8C2B722E8
:0C0E1E00D2B77F327E00120DF8C2B7225E
:0F0DE900C2B2C2B0C2B3C2B17FF47E01020CF03D
:100DC9007A0B79E3120CB0D2B2D2B0C2B3C2B1225B
:100DD9007A0B79F4120CB0D2B3D2B1C2B2C2B0223A
:100D55007BFF7A0C7905120CB2AD447FCB120B7C6C
:0B0D6500C2B2D2B0C2B3C2B102097426
:100D70007BFF7A0C7916120CB2AD447FCB120B7C40
:0B0D8000D2B2C2B0C2B3C2B10209740B
:10097400E4F528F529F50AF50BF58CF58AC28CF512
:1009840040C2B57FE87E03120E2AD2B57F0A7E00EC
:10099400120E2AC2B530B4FDD28C20B4FDC28CAF85
:1009A4008CEF750B00F50AAF8AEF420BE4F58AF57C
:1009B4008CE50B2529F529E50A3528F5287FF47EF1
:1009C40001120E2A0540E540C3940A40B4AE28AF94
:1009D400297C007D0A120A7B8E0A8F0B7C277D10EE
:1009E400120A7B7E037FE8CFCDCFCECCCE120A7B1A
:1009F4008E238F24AE0AAF0B7C037DE8120A7B7E24
:100A0400007F64CFCDCFCECCCE120A7B8E258F262D
:100A1400AE23AF247C007D0A120A69E5262FF5096E
:100A2400E5253EF508E50924FEF544E50834FFF51F
:080A340043AD447FCB020B7CB3
:100DA3007F38120D8B7F06120D8B7F0C120D8B7FFC
:040DB30001020D8BA1
:100D8B008FA0D281C282C2807F7D7E00120E2AC2CA
:080D9B00817F7D7E00020E2A1B
:100D37008D67120D8B8567A0D280D281C2827F7D9D
:0E0D47007E00120E2AC2817F7D7E00020E2ADF
:0A0CB0007BFF7564007565107F80FE
:080CBA008F608B618A6289637F
:100CC200E4F566C3E5669565E49564501CE5602528
:100CD20066FFAB61AA62A963856682758300120A08
:090CE2003CFD120D37056680DAB5
:010CEB0022E6
:020C72008F6C85
:100C7400ED75F06484ABF07A007C007D0AAF037EEE
:100C840000120A7B8F827E00AF037C007D0A120A69
:100C94007B8C6D8D6EAF82EF2430FDAF6C120D37FF
:0C0CA400E56C04FFE56E2430FD020D3706
:020B7C008F6088
:100B7E00ED75F06484756100F562ED75F06484AB1B
:100B8E00F07A007C007D0AAF037E00120A7B8E6332
:100B9E008F647E00AF037C007D0A120A7B8C658D0C
:100BAE0066E5622430FDAF60120D37E56004FFE5A7
:100BBE00642430FD120D37E5602402FFE566243013
:040BCE00FD020D37E0
:100C2700E4F540120E12120CEC0540E540C3946443
:100C370040F17FF47E01120CF0E4F540120E1E1213
:100C47000CEC0540E540C3946440F17FF47E01124B
:100C57000CF0E4F540120E06120CEC0540E540C31B
:0B0C6700946440F17FF47E01020CF069
:0B0E2A00EF1FAC0670011E4C70F6229A
:100D16007C037DE8120A69E48F6B8E6AF569F568D3
:100D2600786874FF120AD2EC4D4E4F60030080F0D3
:010D3600229A
:0E0DF800EF1FAC0670011E4C60030080F3225A
:040CEC007F017E0006
:100CF000E4FDFCC3ED9FEE6480F8EC648098501531
:100D0000E4FBFA0BBB00010ABA01F8BB13F50DBDF9
:050D100000010C80DE73
:010D150022BB
:100AFC00020800E493A3F8E493A34003F68001F208
:100B0C0008DFF48029E493A3F85407240CC8C333FA
:100B1C00C4540F4420C8834004F456800146F6DFC9
:100B2C00E4800B0102040810204080900DB7E47E95
:100B3C00019360BCA3FF543F30E509541FFEE493BE
:100B4C00A360010ECF54C025E060A840B8E493A385
:100B5C00FAE493A3F8E493A3C8C582C8CAC583CAB0
:100B6C00F0A3C8C582C8CAC583CADFE9DEE780BE68
:010DC800002A
:100A3C00BB010CE58229F582E5833AF583E022506F
:100A4C0006E92582F8E622BBFE06E92582F8E222B9
:0D0A5C00E58229F582E5833AF583E49322D3
:100A6900EF8DF0A4A8F0CF8CF0A428CE8DF0A42EA1
:020A7900FE225B
:100A7B00BC000BBE0029EF8DF084FFADF022E4CC5F
:100A8B00F875F008EF2FFFEE33FEEC33FCEE9DEC28
:100A9B00984005FCEE9DFE0FD5F0E9E4CEFD22ED6E
:100AAB00F8F5F0EE8420D21CFEADF075F008EF2FB8
:100ABB00FFED33FD4007985006D5F0F222C398FDA9
:050ACB000FD5F0EA2246
:100AD0007401FF3395E0FEFDFC080808E6CF2FF611
:100AE00018E6CE3EF618E6CD3DF618E6CC3CF622EA
:00000001FF
