:100A940043656C6162204C4344204578616D706C01
:020AA4006500EB
:09091200120800D2817F057E006D
:10091B00E4FDFCC3ED9FEE6480F8EC648098501509
:10092B00E4FBFA0BBB00010AEB64644A70F50DBDE6
:05093B0000010C80DE4C
:010940002294
:10080000EF30E004D2A08002C2A0EF30E104D2A118
:100810008002C2A1EF30E204D2A28002C2A2EF3075
:10082000E304D2A38002C2A3EF30E404D20080022A
:10083000C200EF30E504D2008002C200EF30E604CF
:10084000D2008002C200EF30E703D20022C20022B1
:070AA6007E0012091B7F30E6
:080AAD00C280120912C281226D
:050AE7007F01020AADD1
:100A67008F12A905E512B40105E924808008E51273
:0B0A7700B40207E924C0FF120AAD2200
:1009EF00E4FF120800C2807FC8120AA67F32120AE3
:1009FF00A67F6E120AA67F38120AAD7F0C120AADBF
:0A0A0F007F01120AAD7F06020AAD56
:080ADF00D280120912C281222B
:06096E008B088A09890ACA
:10097400E4F50BF50CAB08AA09A90A850C82850BD2
:1009840083120941FF600D120ADF050CE50C70E5C6
:04099400050B80E1EE
:01099800223C
:050AEC007F1C020AADB1
:050AF1007F18020AADB0
:100A1900EF30E004D2008002C200EF30E104D200DE
:100A29008002C200EF30E204D2008002C200EF303F
:080A3900E303D20022C20022F7
:070A82007E0012091B7F0337
:0B0A8900C280120A19120915C2812256
:0A0AC100E4FF120A897F01020A898E
:04089B008F0DA9050F
:10089F00E50DB40112E92480FFF50E7804A2E713E9
:1008AF00D8FBF50FEF8016E50DB4021FE92480F594
:1008BF000E7804A2E713D8FBF50FE924C0540FF507
:0B08CF0010AF0F120A89AF10120A8947
:0108DA0022FB
:1008DB00E4FF120A197FC8120A827F32120A827F42
:1008EB006E120A827F02120A897F02120A897F081E
:1008FB00120A89E4FF120A897F0C120A89E4FF129B
:07090B000A897F06020A8938
:02099900AE07A7
:10099B00EE540FF9EE54F0FFD2807804A2E713D88F
:1009AB00FBFF120A19120915C281AF01120A19D2E3
:0809BB00817F0512091BC281B6
:0109C3002211
:0609C4008B0D8A0E890F65
:1009CA00E4F510F511AB0DAA0EA90F851182851059
:1009DA0083120941FF600D1209990511E51170E5AD
:0409EA00051080E193
:0109EE0022E6
:0A0ACB007F01120A897F0C020A89DC
:0A0AD5007F01120A897F08020A89D6
:100A4100E4FDFCC3ED9FEE6480F8EC6480985015E2
:100A5100E4FBFA0BBB00010AEB64644A70F50DBDBF
:050A610000010C80DE25
:010A6600226D
:100850001208DB120AC17D027F0212089B7BFF7A1D
:100860000A79941209C49000007F907E01120A4117
:10087000120AD5A3E582640F458370EDE4F583F594
:1008800082C3E582940FE5836480948050C57F9095
:0B0890007E01120A41120ACBA380E691
:03000000020AB53C
:0C0AB500787FE4F6D8FD7581120208502D
:10094100BB010CE58229F582E5833AF583E022506B
:1009510006E92582F8E622BBFE06E92582F8E222B5
:0D096100E58229F582E5833AF583E49322CF
:00000001FF
