:100AAE00504959555348204B554D41520057656C8E
:060ABE00636F6D6520006E
:09093A00120873D2817F057E00D2
:10094300E4FDFCC3ED9FEE6480F8EC6480985015E1
:10095300E4FBFA0BBB00010AEB64644A70F50DBDBE
:0509630000010C80DE24
:01096800226C
:10087300EF30E004D2A08002C2A0EF30E104D2A1A5
:100883008002C2A1EF30E204D2A28002C2A2EF3002
:10089300E304D2A38002C2A3EF30E404D2A4800213
:1008A300C2A4EF30E504D2A58002C2A5EF30E6046E
:1008B300D2A68002C2A6EF30E703D2A722C2A722A4
:070AD6007E001209437F308E
:080ADD00C28012093AC2812215
:050B17007F01020ADD70
:100A93008F0DA905E50DB40105E924808008E50D56
:0B0AA300B40207E924C0FF120ADD22A4
:100A1700E4FF120873C2807FC8120AD67F32120A17
:100A2700D67F6E120AD67F38120ADD7F0C120ADDD6
:0A0A37007F01120ADD7F06020ADDCE
:080B0F00D28012093AC28122D2
:060996008B0D8A0E890F93
:10099C00E4F510F511AB0DAA0EA90F851182851087
:1009AC0083120969FF600D120B0F0511E51170E53B
:0409BC00051080E1C1
:0109C0002214
:050B1C007F1C020ADD50
:050B21007F18020ADD4F
:100A6B00EF30E004D2A48002C2A4EF30E104D2A59F
:100A7B008002C2A5EF30E204D2A68002C2A6EF30FC
:080A8B00E303D2A722C2A72257
:070AC4007E001209437F03CD
:0B0ACB00C280120A6B12093DC281229A
:0A0AF100E4FF120ACB7F01020ACBDA
:0408C3008F12A905E2
:1008C700E512B40112E92480FFF5137804A2E713B7
:1008D700D8FBF514EF8016E512B4021FE92480F562
:1008E700137804A2E713D8FBF514E924C0540FF5D5
:0B08F70015AF14120ACBAF15120ACB8C
:0109020022D2
:10090300E4FF120A6B7FC8120AC47F32120AC47F43
:100913006E120AC47F02120ACB7F02120ACB7F082F
:10092300120ACBE4FF120ACB7F0C120ACBE4FF12AC
:070933000ACB7F06020ACB8C
:0209C100AE077F
:1009C300EE540FF9EE54F0FFD2807804A2E713D867
:1009D300FBFF120A6B12093DC281AF01120A6BD2EF
:0809E300817F05120943C28166
:0109EB0022E9
:0609EC008B088A09890A4C
:1009F200E4F50BF50CAB08AA09A90A850C82850B54
:100A020083120969FF600D1209C1050CE50C70E53E
:040A1200050B80E16F
:010A160022BD
:0A0AFB007F01120ACB7F0C020ACB28
:0A0B05007F01120ACB7F08020ACB21
:040A41007FF47E01BF
:100A4500E4FDFCC3ED9FEE6480F8EC6480985015DE
:100A5500E4FBFA0BBB00010AEB64644A70F50DBDBB
:050A650000010C80DE21
:010A6A002269
:10080000120A17120B177D017F01120A937BFF7AE0
:100810000A79AE120996900000120A41120B21A328
:10082000E582640B458370F1E4F583F582120A4199
:10083000120B1CA3E582640F458370F1120B177D28
:10084000017F02120A937BFF7A0A79BB120996E4B0
:10085000F583F582120A41A3E582640F458370F4A3
:100860007F4F120B0F7F4B120B0F7FE87E03120A94
:0308700045809030
:03000000020AE50C
:0C0AE500787FE4F6D8FD7581150208004A
:10096900BB010CE58229F582E5833AF583E0225043
:1009790006E92582F8E622BBFE06E92582F8E2228D
:0D098900E58229F582E5833AF583E49322A7
:00000001FF
