:0300000002086B88
:0C086B00787FE4F6D8FD758107020800D4
:100800007580FF1208772080281208777FC87E0045
:100810001208361208897FE87E031208361208771C
:100820007F647E001208361208927FE87E03120869
:060830003612088080D0A2
:09087700C2A2C2A0C2A3C2A122C8
:09088000D2A2D2A0C2A3C2A1229F
:09088900D2A3D2A1C2A2C2A02296
:09089200C2A2D2A0C2A3C2A1229D
:0F085C00D2A2C2A0C2A3D2A17F327E0002083670
:10083600E4FDFCC3ED9FEE6480F8EC6480985015EF
:10084600E4FBFA0BBB00010AEB64FA4A70F50DBD36
:0508560000010C80DE32
:01085B00227A
:00000001FF
